{
  "_format": "hh-sol-artifact-1",
  "contractName": "TwitterV1",
  "sourceName": "contracts/TwitterV1.sol",
  "abi": [
    {
      "inputs": [],
      "stateMutability": "nonpayable",
      "type": "constructor"
    },
    {
      "anonymous": false,
      "inputs": [
        {
          "indexed": true,
          "internalType": "address",
          "name": "owner",
          "type": "address"
        },
        {
          "indexed": true,
          "internalType": "address",
          "name": "approved",
          "type": "address"
        },
        {
          "indexed": true,
          "internalType": "uint256",
          "name": "tokenId",
          "type": "uint256"
        }
      ],
      "name": "Approval",
      "type": "event"
    },
    {
      "anonymous": false,
      "inputs": [
        {
          "indexed": true,
          "internalType": "address",
          "name": "owner",
          "type": "address"
        },
        {
          "indexed": true,
          "internalType": "address",
          "name": "operator",
          "type": "address"
        },
        {
          "indexed": false,
          "internalType": "bool",
          "name": "approved",
          "type": "bool"
        }
      ],
      "name": "ApprovalForAll",
      "type": "event"
    },
    {
      "anonymous": false,
      "inputs": [
        {
          "indexed": true,
          "internalType": "address",
          "name": "sender",
          "type": "address"
        }
      ],
      "name": "Commented",
      "type": "event"
    },
    {
      "anonymous": false,
      "inputs": [
        {
          "indexed": true,
          "internalType": "address",
          "name": "from",
          "type": "address"
        },
        {
          "indexed": true,
          "internalType": "address",
          "name": "to",
          "type": "address"
        },
        {
          "indexed": true,
          "internalType": "uint256",
          "name": "tokenId",
          "type": "uint256"
        }
      ],
      "name": "Transfer",
      "type": "event"
    },
    {
      "anonymous": false,
      "inputs": [
        {
          "indexed": true,
          "internalType": "address",
          "name": "sender",
          "type": "address"
        }
      ],
      "name": "Tweeted",
      "type": "event"
    },
    {
      "inputs": [
        {
          "internalType": "uint256",
          "name": "_tokenId",
          "type": "uint256"
        }
      ],
      "name": "addLike",
      "outputs": [],
      "stateMutability": "nonpayable",
      "type": "function"
    },
    {
      "inputs": [
        {
          "internalType": "uint256",
          "name": "_tokenId",
          "type": "uint256"
        }
      ],
      "name": "addRetweet",
      "outputs": [],
      "stateMutability": "nonpayable",
      "type": "function"
    },
    {
      "inputs": [
        {
          "internalType": "address",
          "name": "to",
          "type": "address"
        },
        {
          "internalType": "uint256",
          "name": "tokenId",
          "type": "uint256"
        }
      ],
      "name": "approve",
      "outputs": [],
      "stateMutability": "nonpayable",
      "type": "function"
    },
    {
      "inputs": [
        {
          "internalType": "address",
          "name": "owner",
          "type": "address"
        }
      ],
      "name": "balanceOf",
      "outputs": [
        {
          "internalType": "uint256",
          "name": "",
          "type": "uint256"
        }
      ],
      "stateMutability": "view",
      "type": "function"
    },
    {
      "inputs": [
        {
          "internalType": "string",
          "name": "_url",
          "type": "string"
        }
      ],
      "name": "changeIconUrl",
      "outputs": [],
      "stateMutability": "nonpayable",
      "type": "function"
    },
    {
      "inputs": [
        {
          "internalType": "uint256",
          "name": "",
          "type": "uint256"
        },
        {
          "internalType": "uint256",
          "name": "",
          "type": "uint256"
        }
      ],
      "name": "comments",
      "outputs": [
        {
          "internalType": "uint256",
          "name": "tokenId",
          "type": "uint256"
        },
        {
          "internalType": "string",
          "name": "content",
          "type": "string"
        },
        {
          "internalType": "address",
          "name": "author",
          "type": "address"
        },
        {
          "internalType": "uint256",
          "name": "timestamp",
          "type": "uint256"
        },
        {
          "internalType": "string",
          "name": "attachment",
          "type": "string"
        },
        {
          "internalType": "string",
          "name": "iconUrl",
          "type": "string"
        },
        {
          "internalType": "address",
          "name": "retweetedBy",
          "type": "address"
        }
      ],
      "stateMutability": "view",
      "type": "function"
    },
    {
      "inputs": [
        {
          "internalType": "address",
          "name": "_address",
          "type": "address"
        }
      ],
      "name": "follow",
      "outputs": [],
      "stateMutability": "nonpayable",
      "type": "function"
    },
    {
      "inputs": [
        {
          "internalType": "address",
          "name": "",
          "type": "address"
        },
        {
          "internalType": "uint256",
          "name": "",
          "type": "uint256"
        }
      ],
      "name": "followers",
      "outputs": [
        {
          "internalType": "address",
          "name": "id",
          "type": "address"
        },
        {
          "internalType": "string",
          "name": "iconUrl",
          "type": "string"
        }
      ],
      "stateMutability": "view",
      "type": "function"
    },
    {
      "inputs": [
        {
          "internalType": "address",
          "name": "",
          "type": "address"
        },
        {
          "internalType": "uint256",
          "name": "",
          "type": "uint256"
        }
      ],
      "name": "followings",
      "outputs": [
        {
          "internalType": "address",
          "name": "id",
          "type": "address"
        },
        {
          "internalType": "string",
          "name": "iconUrl",
          "type": "string"
        }
      ],
      "stateMutability": "view",
      "type": "function"
    },
    {
      "inputs": [
        {
          "internalType": "uint256",
          "name": "tokenId",
          "type": "uint256"
        }
      ],
      "name": "getApproved",
      "outputs": [
        {
          "internalType": "address",
          "name": "",
          "type": "address"
        }
      ],
      "stateMutability": "view",
      "type": "function"
    },
    {
      "inputs": [
        {
          "internalType": "uint256",
          "name": "_tokenId",
          "type": "uint256"
        }
      ],
      "name": "getComments",
      "outputs": [
        {
          "components": [
            {
              "internalType": "uint256",
              "name": "tokenId",
              "type": "uint256"
            },
            {
              "internalType": "string",
              "name": "content",
              "type": "string"
            },
            {
              "internalType": "address",
              "name": "author",
              "type": "address"
            },
            {
              "internalType": "uint256",
              "name": "timestamp",
              "type": "uint256"
            },
            {
              "internalType": "string",
              "name": "attachment",
              "type": "string"
            },
            {
              "internalType": "address[]",
              "name": "likes",
              "type": "address[]"
            },
            {
              "internalType": "address[]",
              "name": "retweets",
              "type": "address[]"
            },
            {
              "internalType": "string",
              "name": "iconUrl",
              "type": "string"
            },
            {
              "internalType": "address",
              "name": "retweetedBy",
              "type": "address"
            }
          ],
          "internalType": "struct SharedStruct.Tweet[]",
          "name": "",
          "type": "tuple[]"
        }
      ],
      "stateMutability": "view",
      "type": "function"
    },
    {
      "inputs": [
        {
          "internalType": "address",
          "name": "_address",
          "type": "address"
        }
      ],
      "name": "getFollowers",
      "outputs": [
        {
          "components": [
            {
              "internalType": "address",
              "name": "id",
              "type": "address"
            },
            {
              "internalType": "string",
              "name": "iconUrl",
              "type": "string"
            }
          ],
          "internalType": "struct SharedStruct.User[]",
          "name": "",
          "type": "tuple[]"
        }
      ],
      "stateMutability": "view",
      "type": "function"
    },
    {
      "inputs": [
        {
          "internalType": "address",
          "name": "_address",
          "type": "address"
        }
      ],
      "name": "getFollowings",
      "outputs": [
        {
          "components": [
            {
              "internalType": "address",
              "name": "id",
              "type": "address"
            },
            {
              "internalType": "string",
              "name": "iconUrl",
              "type": "string"
            }
          ],
          "internalType": "struct SharedStruct.User[]",
          "name": "",
          "type": "tuple[]"
        }
      ],
      "stateMutability": "view",
      "type": "function"
    },
    {
      "inputs": [
        {
          "internalType": "address",
          "name": "_address",
          "type": "address"
        }
      ],
      "name": "getLikes",
      "outputs": [
        {
          "components": [
            {
              "internalType": "uint256",
              "name": "tokenId",
              "type": "uint256"
            },
            {
              "internalType": "string",
              "name": "content",
              "type": "string"
            },
            {
              "internalType": "address",
              "name": "author",
              "type": "address"
            },
            {
              "internalType": "uint256",
              "name": "timestamp",
              "type": "uint256"
            },
            {
              "internalType": "string",
              "name": "attachment",
              "type": "string"
            },
            {
              "internalType": "address[]",
              "name": "likes",
              "type": "address[]"
            },
            {
              "internalType": "address[]",
              "name": "retweets",
              "type": "address[]"
            },
            {
              "internalType": "string",
              "name": "iconUrl",
              "type": "string"
            },
            {
              "internalType": "address",
              "name": "retweetedBy",
              "type": "address"
            }
          ],
          "internalType": "struct SharedStruct.Tweet[]",
          "name": "",
          "type": "tuple[]"
        }
      ],
      "stateMutability": "view",
      "type": "function"
    },
    {
      "inputs": [
        {
          "internalType": "int256",
          "name": "offset",
          "type": "int256"
        },
        {
          "internalType": "int256",
          "name": "limit",
          "type": "int256"
        }
      ],
      "name": "getTimeline",
      "outputs": [
        {
          "components": [
            {
              "internalType": "uint256",
              "name": "tokenId",
              "type": "uint256"
            },
            {
              "internalType": "string",
              "name": "content",
              "type": "string"
            },
            {
              "internalType": "address",
              "name": "author",
              "type": "address"
            },
            {
              "internalType": "uint256",
              "name": "timestamp",
              "type": "uint256"
            },
            {
              "internalType": "string",
              "name": "attachment",
              "type": "string"
            },
            {
              "internalType": "address[]",
              "name": "likes",
              "type": "address[]"
            },
            {
              "internalType": "address[]",
              "name": "retweets",
              "type": "address[]"
            },
            {
              "internalType": "string",
              "name": "iconUrl",
              "type": "string"
            },
            {
              "internalType": "address",
              "name": "retweetedBy",
              "type": "address"
            }
          ],
          "internalType": "struct SharedStruct.Tweet[]",
          "name": "",
          "type": "tuple[]"
        }
      ],
      "stateMutability": "view",
      "type": "function"
    },
    {
      "inputs": [
        {
          "internalType": "uint256",
          "name": "_tokenId",
          "type": "uint256"
        }
      ],
      "name": "getTweet",
      "outputs": [
        {
          "components": [
            {
              "internalType": "uint256",
              "name": "tokenId",
              "type": "uint256"
            },
            {
              "internalType": "string",
              "name": "content",
              "type": "string"
            },
            {
              "internalType": "address",
              "name": "author",
              "type": "address"
            },
            {
              "internalType": "uint256",
              "name": "timestamp",
              "type": "uint256"
            },
            {
              "internalType": "string",
              "name": "attachment",
              "type": "string"
            },
            {
              "internalType": "address[]",
              "name": "likes",
              "type": "address[]"
            },
            {
              "internalType": "address[]",
              "name": "retweets",
              "type": "address[]"
            },
            {
              "internalType": "string",
              "name": "iconUrl",
              "type": "string"
            },
            {
              "internalType": "address",
              "name": "retweetedBy",
              "type": "address"
            }
          ],
          "internalType": "struct SharedStruct.Tweet",
          "name": "",
          "type": "tuple"
        }
      ],
      "stateMutability": "view",
      "type": "function"
    },
    {
      "inputs": [
        {
          "internalType": "address",
          "name": "_address",
          "type": "address"
        }
      ],
      "name": "getUserIcon",
      "outputs": [
        {
          "internalType": "string",
          "name": "",
          "type": "string"
        }
      ],
      "stateMutability": "view",
      "type": "function"
    },
    {
      "inputs": [
        {
          "internalType": "address",
          "name": "_address",
          "type": "address"
        }
      ],
      "name": "getUserTweets",
      "outputs": [
        {
          "components": [
            {
              "internalType": "uint256",
              "name": "tokenId",
              "type": "uint256"
            },
            {
              "internalType": "string",
              "name": "content",
              "type": "string"
            },
            {
              "internalType": "address",
              "name": "author",
              "type": "address"
            },
            {
              "internalType": "uint256",
              "name": "timestamp",
              "type": "uint256"
            },
            {
              "internalType": "string",
              "name": "attachment",
              "type": "string"
            },
            {
              "internalType": "address[]",
              "name": "likes",
              "type": "address[]"
            },
            {
              "internalType": "address[]",
              "name": "retweets",
              "type": "address[]"
            },
            {
              "internalType": "string",
              "name": "iconUrl",
              "type": "string"
            },
            {
              "internalType": "address",
              "name": "retweetedBy",
              "type": "address"
            }
          ],
          "internalType": "struct SharedStruct.Tweet[]",
          "name": "",
          "type": "tuple[]"
        }
      ],
      "stateMutability": "view",
      "type": "function"
    },
    {
      "inputs": [],
      "name": "initialize",
      "outputs": [],
      "stateMutability": "nonpayable",
      "type": "function"
    },
    {
      "inputs": [
        {
          "internalType": "address",
          "name": "owner",
          "type": "address"
        },
        {
          "internalType": "address",
          "name": "operator",
          "type": "address"
        }
      ],
      "name": "isApprovedForAll",
      "outputs": [
        {
          "internalType": "bool",
          "name": "",
          "type": "bool"
        }
      ],
      "stateMutability": "view",
      "type": "function"
    },
    {
      "inputs": [
        {
          "internalType": "address",
          "name": "_address",
          "type": "address"
        }
      ],
      "name": "isFollowing",
      "outputs": [
        {
          "internalType": "bool",
          "name": "",
          "type": "bool"
        }
      ],
      "stateMutability": "view",
      "type": "function"
    },
    {
      "inputs": [
        {
          "internalType": "address",
          "name": "",
          "type": "address"
        },
        {
          "internalType": "uint256",
          "name": "",
          "type": "uint256"
        }
      ],
      "name": "likes",
      "outputs": [
        {
          "internalType": "uint256",
          "name": "tokenId",
          "type": "uint256"
        },
        {
          "internalType": "string",
          "name": "content",
          "type": "string"
        },
        {
          "internalType": "address",
          "name": "author",
          "type": "address"
        },
        {
          "internalType": "uint256",
          "name": "timestamp",
          "type": "uint256"
        },
        {
          "internalType": "string",
          "name": "attachment",
          "type": "string"
        },
        {
          "internalType": "string",
          "name": "iconUrl",
          "type": "string"
        },
        {
          "internalType": "address",
          "name": "retweetedBy",
          "type": "address"
        }
      ],
      "stateMutability": "view",
      "type": "function"
    },
    {
      "inputs": [],
      "name": "name",
      "outputs": [
        {
          "internalType": "string",
          "name": "",
          "type": "string"
        }
      ],
      "stateMutability": "view",
      "type": "function"
    },
    {
      "inputs": [
        {
          "internalType": "uint256",
          "name": "tokenId",
          "type": "uint256"
        }
      ],
      "name": "ownerOf",
      "outputs": [
        {
          "internalType": "address",
          "name": "",
          "type": "address"
        }
      ],
      "stateMutability": "view",
      "type": "function"
    },
    {
      "inputs": [
        {
          "internalType": "address",
          "name": "from",
          "type": "address"
        },
        {
          "internalType": "address",
          "name": "to",
          "type": "address"
        },
        {
          "internalType": "uint256",
          "name": "tokenId",
          "type": "uint256"
        }
      ],
      "name": "safeTransferFrom",
      "outputs": [],
      "stateMutability": "nonpayable",
      "type": "function"
    },
    {
      "inputs": [
        {
          "internalType": "address",
          "name": "from",
          "type": "address"
        },
        {
          "internalType": "address",
          "name": "to",
          "type": "address"
        },
        {
          "internalType": "uint256",
          "name": "tokenId",
          "type": "uint256"
        },
        {
          "internalType": "bytes",
          "name": "_data",
          "type": "bytes"
        }
      ],
      "name": "safeTransferFrom",
      "outputs": [],
      "stateMutability": "nonpayable",
      "type": "function"
    },
    {
      "inputs": [
        {
          "internalType": "address",
          "name": "operator",
          "type": "address"
        },
        {
          "internalType": "bool",
          "name": "approved",
          "type": "bool"
        }
      ],
      "name": "setApprovalForAll",
      "outputs": [],
      "stateMutability": "nonpayable",
      "type": "function"
    },
    {
      "inputs": [
        {
          "internalType": "string",
          "name": "_comment",
          "type": "string"
        },
        {
          "internalType": "uint256",
          "name": "_tokenId",
          "type": "uint256"
        }
      ],
      "name": "setComment",
      "outputs": [],
      "stateMutability": "nonpayable",
      "type": "function"
    },
    {
      "inputs": [
        {
          "internalType": "string",
          "name": "_tweet",
          "type": "string"
        },
        {
          "internalType": "string",
          "name": "_imageData",
          "type": "string"
        }
      ],
      "name": "setTweet",
      "outputs": [],
      "stateMutability": "nonpayable",
      "type": "function"
    },
    {
      "inputs": [
        {
          "internalType": "bytes4",
          "name": "interfaceId",
          "type": "bytes4"
        }
      ],
      "name": "supportsInterface",
      "outputs": [
        {
          "internalType": "bool",
          "name": "",
          "type": "bool"
        }
      ],
      "stateMutability": "view",
      "type": "function"
    },
    {
      "inputs": [],
      "name": "symbol",
      "outputs": [
        {
          "internalType": "string",
          "name": "",
          "type": "string"
        }
      ],
      "stateMutability": "view",
      "type": "function"
    },
    {
      "inputs": [
        {
          "internalType": "uint256",
          "name": "_tokenId",
          "type": "uint256"
        }
      ],
      "name": "tokenURI",
      "outputs": [
        {
          "internalType": "string",
          "name": "",
          "type": "string"
        }
      ],
      "stateMutability": "view",
      "type": "function"
    },
    {
      "inputs": [
        {
          "internalType": "address",
          "name": "from",
          "type": "address"
        },
        {
          "internalType": "address",
          "name": "to",
          "type": "address"
        },
        {
          "internalType": "uint256",
          "name": "tokenId",
          "type": "uint256"
        }
      ],
      "name": "transferFrom",
      "outputs": [],
      "stateMutability": "nonpayable",
      "type": "function"
    },
    {
      "inputs": [
        {
          "internalType": "uint256",
          "name": "",
          "type": "uint256"
        }
      ],
      "name": "tweets",
      "outputs": [
        {
          "internalType": "uint256",
          "name": "tokenId",
          "type": "uint256"
        },
        {
          "internalType": "string",
          "name": "content",
          "type": "string"
        },
        {
          "internalType": "address",
          "name": "author",
          "type": "address"
        },
        {
          "internalType": "uint256",
          "name": "timestamp",
          "type": "uint256"
        },
        {
          "internalType": "string",
          "name": "attachment",
          "type": "string"
        },
        {
          "internalType": "string",
          "name": "iconUrl",
          "type": "string"
        },
        {
          "internalType": "address",
          "name": "retweetedBy",
          "type": "address"
        }
      ],
      "stateMutability": "view",
      "type": "function"
    },
    {
      "inputs": [
        {
          "internalType": "address",
          "name": "_address",
          "type": "address"
        }
      ],
      "name": "unfollow",
      "outputs": [],
      "stateMutability": "nonpayable",
      "type": "function"
    },
    {
      "inputs": [
        {
          "internalType": "address",
          "name": "",
          "type": "address"
        }
      ],
      "name": "users",
      "outputs": [
        {
          "internalType": "address",
          "name": "id",
          "type": "address"
        },
        {
          "internalType": "string",
          "name": "iconUrl",
          "type": "string"
        }
      ],
      "stateMutability": "view",
      "type": "function"
    }
  ],
  "bytecode": "0x60806040523480156200001157600080fd5b50600054610100900460ff166200002f5760005460ff161562000039565b620000396200012f565b620000a25760405162461bcd60e51b815260206004820152602e60248201527f496e697469616c697a61626c653a20636f6e747261637420697320616c72656160448201526d191e481a5b9a5d1a585b1a5e995960921b60648201526084015b60405180910390fd5b600054610100900460ff16158015620000c5576000805461ffff19166101011790555b620001156040518060400160405280600a8152602001690a8eed2e8e8cae48aa8960b31b815250604051806040016040528060048152602001635457544560e01b8152506200014d60201b60201c565b801562000128576000805461ff00191690555b50620003a0565b60006200014730620001cd60201b62003e1b1760201c565b15905090565b600054610100900460ff16620001a95760405162461bcd60e51b815260206004820152602b602482015260008051602062005b9a83398151915260448201526a6e697469616c697a696e6760a81b606482015260840162000099565b620001b3620001d3565b620001bd620001d3565b620001c9828262000231565b5050565b3b151590565b600054610100900460ff166200022f5760405162461bcd60e51b815260206004820152602b602482015260008051602062005b9a83398151915260448201526a6e697469616c697a696e6760a81b606482015260840162000099565b565b600054610100900460ff166200028d5760405162461bcd60e51b815260206004820152602b602482015260008051602062005b9a83398151915260448201526a6e697469616c697a696e6760a81b606482015260840162000099565b8151620002a2906065906020850190620002bd565b508051620002b8906066906020840190620002bd565b505050565b828054620002cb9062000363565b90600052602060002090601f016020900481019282620002ef57600085556200033a565b82601f106200030a57805160ff19168380011785556200033a565b828001600101855582156200033a579182015b828111156200033a5782518255916020019190600101906200031d565b50620003489291506200034c565b5090565b5b808211156200034857600081556001016200034d565b600181811c908216806200037857607f821691505b602082108114156200039a57634e487b7160e01b600052602260045260246000fd5b50919050565b6157ea80620003b06000396000f3fe608060405234801561001057600080fd5b506004361061021c5760003560e01c80638d51cc2811610125578063cc18513f116100ad578063e6a90da51161007c578063e6a90da5146104df578063e8d857b0146104f2578063e985e9c514610505578063ebd009d314610541578063fc6c776f1461055457600080fd5b8063cc18513f14610493578063cca22f79146104a6578063de440e0e146104b9578063dedf1b4a146104cc57600080fd5b8063a87430ba116100f4578063a87430ba1461040c578063b88d4fde1461042d578063c2fe202214610440578063c3ad5ecb14610460578063c87b56dd1461048057600080fd5b80638d51cc28146103b857806395d89b41146103cb578063a22cb465146103d3578063a2898a30146103e657600080fd5b8063378a35cd116101a85780634dbf27cc116101775780634dbf27cc146103565780635a7fec88146103695780636352211e1461037c57806370a082311461038f5780638129fc1c146103b057600080fd5b8063378a35cd1461030a57806340c184af1461031d57806342842e0e14610330578063447d93691461034357600080fd5b8063095ea7b3116101ef578063095ea7b31461029e57806309d4d796146102b157806323b872dd146102c457806323edf697146102d75780632f5899d7146102f757600080fd5b8063015a4ead1461022157806301ffc9a71461023657806306fdde031461025e578063081812fc14610273575b600080fd5b61023461022f366004614c2a565b610567565b005b610249610244366004614d8d565b6109a2565b60405190151581526020015b60405180910390f35b6102666109f4565b6040516102559190615490565b610286610281366004614ebd565b610a86565b6040516001600160a01b039091168152602001610255565b6102346102ac366004614d64565b610b20565b6102496102bf366004614c2a565b610c36565b6102346102d2366004614c76565b610ccb565b6102ea6102e5366004614ebd565b610cfc565b60405161025591906153b3565b6102ea610305366004614c2a565b61102a565b610234610318366004614ebd565b61160b565b6102ea61032b366004614dc5565b611871565b61023461033e366004614c76565b611d22565b610266610351366004614c2a565b611d3d565b610234610364366004614c2a565b611dec565b610234610377366004614ebd565b6121c3565b61028661038a366004614ebd565b6126f0565b6103a261039d366004614c2a565b612767565b604051908152602001610255565b6102346127ee565b6102346103c6366004614de6565b6128a7565b6102666128dc565b6102346103e1366004614d2a565b6128eb565b6103f96103f4366004614d64565b6128f6565b6040516102559796959493929190615559565b61041f61041a366004614c2a565b612b04565b60405161025592919061538f565b61023461043b366004614cb1565b612bb3565b61045361044e366004614c2a565b612be5565b6040516102559190615414565b61047361046e366004614ebd565b612cf6565b6040516102559190615546565b61026661048e366004614ebd565b6130ba565b6102ea6104a1366004614c2a565b6133fb565b6104536104b4366004614c2a565b613721565b6102346104c7366004614e19565b613832565b61041f6104da366004614d64565b613afa565b6102346104ed366004614e7a565b613b47565b6103f9610500366004614ebd565b613dae565b610249610513366004614c44565b6001600160a01b039182166000908152606a6020908152604080832093909416825291909152205460ff1690565b61041f61054f366004614d64565b613de3565b6103f9610562366004614dc5565b613dff565b6001600160a01b03811633141561057d57600080fd5b60005b336000908152609b602052604090205481101561077b57336000908152609b6020526040902080546001600160a01b0384169190839081106105d257634e487b7160e01b600052603260045260246000fd5b60009182526020909120600290910201546001600160a01b0316141561076957805b336000908152609b602052604090205461061090600190615651565b81101561070657336000908152609b602052604090206106318260016155c7565b8154811061064f57634e487b7160e01b600052603260045260246000fd5b9060005260206000209060020201609b6000336001600160a01b03166001600160a01b0316815260200190815260200160002082815481106106a157634e487b7160e01b600052603260045260246000fd5b60009182526020909120825460029092020180546001600160a01b0319166001600160a01b0390921691909117815560018083018054918301916106e4906156b2565b6106ef929190614932565b5090505080806106fe906156ed565b9150506105f4565b50336000908152609b6020526040902080548061073357634e487b7160e01b600052603160045260246000fd5b60008281526020812060026000199093019283020180546001600160a01b03191681559061076460018301826149bd565b505090555b80610773816156ed565b915050610580565b5060005b6001600160a01b0382166000908152609c602052604090205481101561099e576001600160a01b0382166000908152609c602052604090208054339190839081106107da57634e487b7160e01b600052603260045260246000fd5b60009182526020909120600290910201546001600160a01b0316141561098c57805b6001600160a01b0383166000908152609c602052604090205461082190600190615651565b811015610920576001600160a01b0383166000908152609c6020526040902061084b8260016155c7565b8154811061086957634e487b7160e01b600052603260045260246000fd5b9060005260206000209060020201609c6000856001600160a01b03166001600160a01b0316815260200190815260200160002082815481106108bb57634e487b7160e01b600052603260045260246000fd5b60009182526020909120825460029092020180546001600160a01b0319166001600160a01b0390921691909117815560018083018054918301916108fe906156b2565b610909929190614932565b509050508080610918906156ed565b9150506107fc565b506001600160a01b0382166000908152609c6020526040902080548061095657634e487b7160e01b600052603160045260246000fd5b60008281526020812060026000199093019283020180546001600160a01b03191681559061098760018301826149bd565b505090555b80610996816156ed565b91505061077f565b5050565b60006001600160e01b031982166380ac58cd60e01b14806109d357506001600160e01b03198216635b5e139f60e01b145b806109ee57506301ffc9a760e01b6001600160e01b03198316145b92915050565b606060658054610a03906156b2565b80601f0160208091040260200160405190810160405280929190818152602001828054610a2f906156b2565b8015610a7c5780601f10610a5157610100808354040283529160200191610a7c565b820191906000526020600020905b815481529060010190602001808311610a5f57829003601f168201915b5050505050905090565b6000818152606760205260408120546001600160a01b0316610b045760405162461bcd60e51b815260206004820152602c60248201527f4552433732313a20617070726f76656420717565727920666f72206e6f6e657860448201526b34b9ba32b73a103a37b5b2b760a11b60648201526084015b60405180910390fd5b506000908152606960205260409020546001600160a01b031690565b6000610b2b826126f0565b9050806001600160a01b0316836001600160a01b03161415610b995760405162461bcd60e51b815260206004820152602160248201527f4552433732313a20617070726f76616c20746f2063757272656e74206f776e656044820152603960f91b6064820152608401610afb565b336001600160a01b0382161480610bb55750610bb58133610513565b610c275760405162461bcd60e51b815260206004820152603860248201527f4552433732313a20617070726f76652063616c6c6572206973206e6f74206f7760448201527f6e6572206e6f7220617070726f76656420666f7220616c6c00000000000000006064820152608401610afb565b610c318383613e21565b505050565b600080805b336000908152609b6020526040902054811015610cc457336000908152609b6020526040902080546001600160a01b038616919083908110610c8d57634e487b7160e01b600052603260045260246000fd5b60009182526020909120600290910201546001600160a01b03161415610cb257600191505b80610cbc816156ed565b915050610c3b565b5092915050565b610cd53382613e8f565b610cf15760405162461bcd60e51b8152600401610afb906154f5565b610c31838383613f86565b6060609a6000838152602001908152602001600020805480602002602001604051908101604052809291908181526020016000905b8282101561101f57838290600052602060002090600902016040518061012001604052908160008201548152602001600182018054610d6f906156b2565b80601f0160208091040260200160405190810160405280929190818152602001828054610d9b906156b2565b8015610de85780601f10610dbd57610100808354040283529160200191610de8565b820191906000526020600020905b815481529060010190602001808311610dcb57829003601f168201915b505050918352505060028201546001600160a01b0316602082015260038201546040820152600482018054606090920191610e22906156b2565b80601f0160208091040260200160405190810160405280929190818152602001828054610e4e906156b2565b8015610e9b5780601f10610e7057610100808354040283529160200191610e9b565b820191906000526020600020905b815481529060010190602001808311610e7e57829003601f168201915b5050505050815260200160058201805480602002602001604051908101604052809291908181526020018280548015610efd57602002820191906000526020600020905b81546001600160a01b03168152600190910190602001808311610edf575b5050505050815260200160068201805480602002602001604051908101604052809291908181526020018280548015610f5f57602002820191906000526020600020905b81546001600160a01b03168152600190910190602001808311610f41575b50505050508152602001600782018054610f78906156b2565b80601f0160208091040260200160405190810160405280929190818152602001828054610fa4906156b2565b8015610ff15780601f10610fc657610100808354040283529160200191610ff1565b820191906000526020600020905b815481529060010190602001808311610fd457829003601f168201915b5050509183525050600891909101546001600160a01b03166020918201529082526001929092019101610d31565b505050509050919050565b60606000805b60985481101561114a57836001600160a01b03166098828154811061106557634e487b7160e01b600052603260045260246000fd5b60009182526020909120600260099092020101546001600160a01b03161480156110d5575060006001600160a01b0316609882815481106110b657634e487b7160e01b600052603260045260246000fd5b60009182526020909120600860099092020101546001600160a01b0316145b806111255750836001600160a01b03166098828154811061110657634e487b7160e01b600052603260045260246000fd5b60009182526020909120600860099092020101546001600160a01b0316145b156111385781611134816156ed565b9250505b80611142816156ed565b915050611030565b5060008167ffffffffffffffff81111561117457634e487b7160e01b600052604160045260246000fd5b6040519080825280602002602001820160405280156111ad57816020015b61119a6149f7565b8152602001906001900390816111925790505b50905060008060016098805490506111c59190615651565b90505b8060001361160157856001600160a01b0316609882815481106111fb57634e487b7160e01b600052603260045260246000fd5b60009182526020909120600260099092020101546001600160a01b031614801561126b575060006001600160a01b03166098828154811061124c57634e487b7160e01b600052603260045260246000fd5b60009182526020909120600860099092020101546001600160a01b0316145b806112bb5750856001600160a01b03166098828154811061129c57634e487b7160e01b600052603260045260246000fd5b60009182526020909120600860099092020101546001600160a01b0316145b156115f157609881815481106112e157634e487b7160e01b600052603260045260246000fd5b90600052602060002090600902016040518061012001604052908160008201548152602001600182018054611315906156b2565b80601f0160208091040260200160405190810160405280929190818152602001828054611341906156b2565b801561138e5780601f106113635761010080835404028352916020019161138e565b820191906000526020600020905b81548152906001019060200180831161137157829003601f168201915b505050918352505060028201546001600160a01b03166020820152600382015460408201526004820180546060909201916113c8906156b2565b80601f01602080910402602001604051908101604052809291908181526020018280546113f4906156b2565b80156114415780601f1061141657610100808354040283529160200191611441565b820191906000526020600020905b81548152906001019060200180831161142457829003601f168201915b50505050508152602001600582018054806020026020016040519081016040528092919081815260200182805480156114a357602002820191906000526020600020905b81546001600160a01b03168152600190910190602001808311611485575b505050505081526020016006820180548060200260200160405190810160405280929190818152602001828054801561150557602002820191906000526020600020905b81546001600160a01b031681526001909101906020018083116114e7575b5050505050815260200160078201805461151e906156b2565b80601f016020809104026020016040519081016040528092919081815260200182805461154a906156b2565b80156115975780601f1061156c57610100808354040283529160200191611597565b820191906000526020600020905b81548152906001019060200180831161157a57829003601f168201915b5050509183525050600891909101546001600160a01b031660209091015283518490849081106115d757634e487b7160e01b600052603260045260246000fd5b602002602001018190525081806115ed906156ed565b9250505b6115fa81615694565b90506111c8565b5090949350505050565b60005b336000908152609d602052604090205481101561168557336000908152609d6020526040902080548391908390811061165757634e487b7160e01b600052603260045260246000fd5b9060005260206000209060090201600001541415611673575050565b8061167d816156ed565b91505061160e565b5060005b60985481101561099e5781609882815481106116b557634e487b7160e01b600052603260045260246000fd5b906000526020600020906009020160000154141561185f57609881815481106116ee57634e487b7160e01b600052603260045260246000fd5b6000918252602080832060056009909302019190910180546001810182559083528183200180546001600160a01b031916339081179091558252609d905260409020609880548390811061175257634e487b7160e01b600052603260045260246000fd5b6000918252602080832084546001818101875595855291909320600992830290930180549190920290920191825582810180549193830191611793906156b2565b61179e929190614932565b5060028281015490820180546001600160a01b0319166001600160a01b039092169190911790556003808301549082015560048083018054918301916117e3906156b2565b6117ee929190614932565b50600582810180546118039284019190614a55565b50600682810180546118189284019190614a55565b50600782018160070190805461182d906156b2565b611838929190614932565b50600891820154910180546001600160a01b0319166001600160a01b039092169190911790555b80611869816156ed565b915050611689565b6060600083121561188157600080fd5b6098548311156118c45760408051600080825260208201909252906118bc565b6118a96149f7565b8152602001906001900390816118a15790505b5090506109ee565b6098546000836118d48684615612565b136118e8576118e38583615612565b6118ea565b835b905060008167ffffffffffffffff81111561191557634e487b7160e01b600052604160045260246000fd5b60405190808252806020026020018201604052801561194e57816020015b61193b6149f7565b8152602001906001900390816119335790505b50905060008060016119608986615612565b61196a9190615612565b90505b80876119798a87615612565b6119839190615612565b13611d165760016119948986615612565b61199e9190615612565b81131580156119c1575080876119b48a87615612565b6119be9190615612565b13155b80156119ce575060008112155b15611d0457609881815481106119f457634e487b7160e01b600052603260045260246000fd5b90600052602060002090600902016040518061012001604052908160008201548152602001600182018054611a28906156b2565b80601f0160208091040260200160405190810160405280929190818152602001828054611a54906156b2565b8015611aa15780601f10611a7657610100808354040283529160200191611aa1565b820191906000526020600020905b815481529060010190602001808311611a8457829003601f168201915b505050918352505060028201546001600160a01b0316602082015260038201546040820152600482018054606090920191611adb906156b2565b80601f0160208091040260200160405190810160405280929190818152602001828054611b07906156b2565b8015611b545780601f10611b2957610100808354040283529160200191611b54565b820191906000526020600020905b815481529060010190602001808311611b3757829003601f168201915b5050505050815260200160058201805480602002602001604051908101604052809291908181526020018280548015611bb657602002820191906000526020600020905b81546001600160a01b03168152600190910190602001808311611b98575b5050505050815260200160068201805480602002602001604051908101604052809291908181526020018280548015611c1857602002820191906000526020600020905b81546001600160a01b03168152600190910190602001808311611bfa575b50505050508152602001600782018054611c31906156b2565b80601f0160208091040260200160405190810160405280929190818152602001828054611c5d906156b2565b8015611caa5780601f10611c7f57610100808354040283529160200191611caa565b820191906000526020600020905b815481529060010190602001808311611c8d57829003601f168201915b5050509183525050600891909101546001600160a01b03166020909101528351849084908110611cea57634e487b7160e01b600052603260045260246000fd5b60200260200101819052508180611d00906156ed565b9250505b80611d0e81615694565b91505061196d565b50909695505050505050565b610c3183838360405180602001604052806000815250612bb3565b6001600160a01b0381166000908152609960205260409020600101805460609190611d67906156b2565b80601f0160208091040260200160405190810160405280929190818152602001828054611d93906156b2565b8015611de05780601f10611db557610100808354040283529160200191611de0565b820191906000526020600020905b815481529060010190602001808311611dc357829003601f168201915b50505050509050919050565b6001600160a01b038116331415611e0257600080fd5b336000908152609960205260408120600101805460609283929091611e26906156b2565b90501115611ecc573360009081526099602052604090206001018054611e4b906156b2565b80601f0160208091040260200160405190810160405280929190818152602001828054611e77906156b2565b8015611ec45780601f10611e9957610100808354040283529160200191611ec4565b820191906000526020600020905b815481529060010190602001808311611ea757829003601f168201915b505050505091505b6001600160a01b03831660009081526099602052604081206001018054611ef2906156b2565b90501115611fa1576001600160a01b03831660009081526099602052604090206001018054611f20906156b2565b80601f0160208091040260200160405190810160405280929190818152602001828054611f4c906156b2565b8015611f995780601f10611f6e57610100808354040283529160200191611f99565b820191906000526020600020905b815481529060010190602001808311611f7c57829003601f168201915b505050505090505b6000805b336000908152609b602052604090205481101561202e57336000908152609b6020526040902080546001600160a01b038716919083908110611ff757634e487b7160e01b600052603260045260246000fd5b60009182526020909120600290910201546001600160a01b0316141561201c57600191505b80612026816156ed565b915050611fa5565b50806120aa57336000908152609b6020908152604080832081518083019092526001600160a01b03888116835282840187815282546001808201855593875295859020845160029097020180546001600160a01b03191696909216959095178155935180519294936120a69392850192910190614a94565b5050505b506000805b6001600160a01b0385166000908152609c6020526040902054811015612141576001600160a01b0385166000908152609c6020526040902080543391908390811061210a57634e487b7160e01b600052603260045260246000fd5b60009182526020909120600290910201546001600160a01b0316141561212f57600191505b80612139816156ed565b9150506120af565b50806121bd576001600160a01b038481166000908152609c60209081526040808320815180830190925233825281830188815281546001808201845592865294849020835160029096020180546001600160a01b03191695909616949094178555925180519194936121b99390850192910190614a94565b5050505b50505050565b6121cb6149f7565b60005b60985481101561257d5782609882815481106121fa57634e487b7160e01b600052603260045260246000fd5b906000526020600020906009020160000154141561256b576098818154811061223357634e487b7160e01b600052603260045260246000fd5b60009182526020808320600660099093020191909101805460018101825590835291200180546001600160a01b03191633179055609880548290811061228957634e487b7160e01b600052603260045260246000fd5b906000526020600020906009020160405180610120016040529081600082015481526020016001820180546122bd906156b2565b80601f01602080910402602001604051908101604052809291908181526020018280546122e9906156b2565b80156123365780601f1061230b57610100808354040283529160200191612336565b820191906000526020600020905b81548152906001019060200180831161231957829003601f168201915b505050918352505060028201546001600160a01b0316602082015260038201546040820152600482018054606090920191612370906156b2565b80601f016020809104026020016040519081016040528092919081815260200182805461239c906156b2565b80156123e95780601f106123be576101008083540402835291602001916123e9565b820191906000526020600020905b8154815290600101906020018083116123cc57829003601f168201915b505050505081526020016005820180548060200260200160405190810160405280929190818152602001828054801561244b57602002820191906000526020600020905b81546001600160a01b0316815260019091019060200180831161242d575b50505050508152602001600682018054806020026020016040519081016040528092919081815260200182805480156124ad57602002820191906000526020600020905b81546001600160a01b0316815260019091019060200180831161248f575b505050505081526020016007820180546124c6906156b2565b80601f01602080910402602001604051908101604052809291908181526020018280546124f2906156b2565b801561253f5780601f106125145761010080835404028352916020019161253f565b820191906000526020600020905b81548152906001019060200180831161252257829003601f168201915b5050509183525050600891909101546001600160a01b031660209091015233610100820152915061257d565b80612575816156ed565b9150506121ce565b5060988054600181018255600091909152815160099091027f2237a976fa961f5921fd19f2b03c925c725d77b20ce8f790c19709c03de4d814810191825560208084015180518594936125f6937f2237a976fa961f5921fd19f2b03c925c725d77b20ce8f790c19709c03de4d815909101920190614a94565b5060408201516002820180546001600160a01b0319166001600160a01b039092169190911790556060820151600382015560808201518051612642916004840191602090910190614a94565b5060a0820151805161265e916005840191602090910190614b08565b5060c0820151805161267a916006840191602090910190614b08565b5060e08201518051612696916007840191602090910190614a94565b506101009190910151600890910180546001600160a01b0319166001600160a01b0390921691909117905560405133907fbcfb4e896ec8bbf5ce196bc2fbb4f0f369684f885e110557c606c3a1754245b490600090a25050565b6000818152606760205260408120546001600160a01b0316806109ee5760405162461bcd60e51b815260206004820152602960248201527f4552433732313a206f776e657220717565727920666f72206e6f6e657869737460448201526832b73a103a37b5b2b760b91b6064820152608401610afb565b60006001600160a01b0382166127d25760405162461bcd60e51b815260206004820152602a60248201527f4552433732313a2062616c616e636520717565727920666f7220746865207a65604482015269726f206164647265737360b01b6064820152608401610afb565b506001600160a01b031660009081526068602052604090205490565b600054610100900460ff166128095760005460ff161561280d565b303b155b6128705760405162461bcd60e51b815260206004820152602e60248201527f496e697469616c697a61626c653a20636f6e747261637420697320616c72656160448201526d191e481a5b9a5d1a585b1a5e995960921b6064820152608401610afb565b600054610100900460ff16158015612892576000805461ffff19166101011790555b80156128a4576000805461ff00191690555b50565b33600081815260996020908152604090912080546001600160a01b0319169092178255825161099e9260010191840190614a94565b606060668054610a03906156b2565b61099e338383614126565b609d602052816000526040600020818154811061291257600080fd5b90600052602060002090600902016000915091505080600001549080600101805461293c906156b2565b80601f0160208091040260200160405190810160405280929190818152602001828054612968906156b2565b80156129b55780601f1061298a576101008083540402835291602001916129b5565b820191906000526020600020905b81548152906001019060200180831161299857829003601f168201915b505050506002830154600384015460048501805494956001600160a01b0390931694919350906129e4906156b2565b80601f0160208091040260200160405190810160405280929190818152602001828054612a10906156b2565b8015612a5d5780601f10612a3257610100808354040283529160200191612a5d565b820191906000526020600020905b815481529060010190602001808311612a4057829003601f168201915b505050505090806007018054612a72906156b2565b80601f0160208091040260200160405190810160405280929190818152602001828054612a9e906156b2565b8015612aeb5780601f10612ac057610100808354040283529160200191612aeb565b820191906000526020600020905b815481529060010190602001808311612ace57829003601f168201915b505050600890930154919250506001600160a01b031687565b609960205260009081526040902080546001820180546001600160a01b039092169291612b30906156b2565b80601f0160208091040260200160405190810160405280929190818152602001828054612b5c906156b2565b8015612ba95780601f10612b7e57610100808354040283529160200191612ba9565b820191906000526020600020905b815481529060010190602001808311612b8c57829003601f168201915b5050505050905082565b612bbd3383613e8f565b612bd95760405162461bcd60e51b8152600401610afb906154f5565b6121bd848484846141f5565b6001600160a01b0381166000908152609c60209081526040808320805482518185028101850190935280835260609492939192909184015b8282101561101f576000848152602090819020604080518082019091526002850290910180546001600160a01b031682526001810180549293919291840191612c65906156b2565b80601f0160208091040260200160405190810160405280929190818152602001828054612c91906156b2565b8015612cde5780601f10612cb357610100808354040283529160200191612cde565b820191906000526020600020905b815481529060010190602001808311612cc157829003601f168201915b50505050508152505081526020019060010190612c1d565b612cfe6149f7565b612d066149f7565b609854612d135792915050565b60005b609854811015610cc4578360988281548110612d4257634e487b7160e01b600052603260045260246000fd5b906000526020600020906009020160000154148015612da7575060006001600160a01b031660988281548110612d8857634e487b7160e01b600052603260045260246000fd5b60009182526020909120600860099092020101546001600160a01b0316145b156130a85760988181548110612dcd57634e487b7160e01b600052603260045260246000fd5b90600052602060002090600902016040518061012001604052908160008201548152602001600182018054612e01906156b2565b80601f0160208091040260200160405190810160405280929190818152602001828054612e2d906156b2565b8015612e7a5780601f10612e4f57610100808354040283529160200191612e7a565b820191906000526020600020905b815481529060010190602001808311612e5d57829003601f168201915b505050918352505060028201546001600160a01b0316602082015260038201546040820152600482018054606090920191612eb4906156b2565b80601f0160208091040260200160405190810160405280929190818152602001828054612ee0906156b2565b8015612f2d5780601f10612f0257610100808354040283529160200191612f2d565b820191906000526020600020905b815481529060010190602001808311612f1057829003601f168201915b5050505050815260200160058201805480602002602001604051908101604052809291908181526020018280548015612f8f57602002820191906000526020600020905b81546001600160a01b03168152600190910190602001808311612f71575b5050505050815260200160068201805480602002602001604051908101604052809291908181526020018280548015612ff157602002820191906000526020600020905b81546001600160a01b03168152600190910190602001808311612fd3575b5050505050815260200160078201805461300a906156b2565b80601f0160208091040260200160405190810160405280929190818152602001828054613036906156b2565b80156130835780601f1061305857610100808354040283529160200191613083565b820191906000526020600020905b81548152906001019060200180831161306657829003601f168201915b5050509183525050600891909101546001600160a01b03166020909101529150610cc4565b806130b2816156ed565b915050612d16565b6000818152606760205260409020546060906001600160a01b03166130de57600080fd5b6109ee6098805480602002602001604051908101604052809291908181526020016000905b828210156133f157838290600052602060002090600902016040518061012001604052908160008201548152602001600182018054613141906156b2565b80601f016020809104026020016040519081016040528092919081815260200182805461316d906156b2565b80156131ba5780601f1061318f576101008083540402835291602001916131ba565b820191906000526020600020905b81548152906001019060200180831161319d57829003601f168201915b505050918352505060028201546001600160a01b03166020820152600382015460408201526004820180546060909201916131f4906156b2565b80601f0160208091040260200160405190810160405280929190818152602001828054613220906156b2565b801561326d5780601f106132425761010080835404028352916020019161326d565b820191906000526020600020905b81548152906001019060200180831161325057829003601f168201915b50505050508152602001600582018054806020026020016040519081016040528092919081815260200182805480156132cf57602002820191906000526020600020905b81546001600160a01b031681526001909101906020018083116132b1575b505050505081526020016006820180548060200260200160405190810160405280929190818152602001828054801561333157602002820191906000526020600020905b81546001600160a01b03168152600190910190602001808311613313575b5050505050815260200160078201805461334a906156b2565b80601f0160208091040260200160405190810160405280929190818152602001828054613376906156b2565b80156133c35780601f10613398576101008083540402835291602001916133c3565b820191906000526020600020905b8154815290600101906020018083116133a657829003601f168201915b5050509183525050600891909101546001600160a01b03166020918201529082526001929092019101613103565b5050505083614228565b6001600160a01b0381166000908152609d60209081526040808320805482518185028101850190935280835260609492939192909184015b8282101561101f57838290600052602060002090600902016040518061012001604052908160008201548152602001600182018054613471906156b2565b80601f016020809104026020016040519081016040528092919081815260200182805461349d906156b2565b80156134ea5780601f106134bf576101008083540402835291602001916134ea565b820191906000526020600020905b8154815290600101906020018083116134cd57829003601f168201915b505050918352505060028201546001600160a01b0316602082015260038201546040820152600482018054606090920191613524906156b2565b80601f0160208091040260200160405190810160405280929190818152602001828054613550906156b2565b801561359d5780601f106135725761010080835404028352916020019161359d565b820191906000526020600020905b81548152906001019060200180831161358057829003601f168201915b50505050508152602001600582018054806020026020016040519081016040528092919081815260200182805480156135ff57602002820191906000526020600020905b81546001600160a01b031681526001909101906020018083116135e1575b505050505081526020016006820180548060200260200160405190810160405280929190818152602001828054801561366157602002820191906000526020600020905b81546001600160a01b03168152600190910190602001808311613643575b5050505050815260200160078201805461367a906156b2565b80601f01602080910402602001604051908101604052809291908181526020018280546136a6906156b2565b80156136f35780601f106136c8576101008083540402835291602001916136f3565b820191906000526020600020905b8154815290600101906020018083116136d657829003601f168201915b5050509183525050600891909101546001600160a01b03166020918201529082526001929092019101613433565b6001600160a01b0381166000908152609b60209081526040808320805482518185028101850190935280835260609492939192909184015b8282101561101f576000848152602090819020604080518082019091526002850290910180546001600160a01b0316825260018101805492939192918401916137a1906156b2565b80601f01602080910402602001604051908101604052809291908181526020018280546137cd906156b2565b801561381a5780601f106137ef5761010080835404028352916020019161381a565b820191906000526020600020905b8154815290600101906020018083116137fd57829003601f168201915b50505050508152505081526020019060010190613759565b600061383d60975490565b3360009081526099602052604081206001018054929350606092613860906156b2565b90501115613906573360009081526099602052604090206001018054613885906156b2565b80601f01602080910402602001604051908101604052809291908181526020018280546138b1906156b2565b80156138fe5780601f106138d3576101008083540402835291602001916138fe565b820191906000526020600020905b8154815290600101906020018083116138e157829003601f168201915b505050505090505b61390e6149f7565b6139198360016155c7565b81526020810185905233604082015242606082015260e081018290528351156139485760808101849052613968565b600085511161395657600080fd5b61395f85614300565b61396857600080fd5b60988054600181018255600091909152815160099091027f2237a976fa961f5921fd19f2b03c925c725d77b20ce8f790c19709c03de4d814810191825560208084015180518594936139e0937f2237a976fa961f5921fd19f2b03c925c725d77b20ce8f790c19709c03de4d815909101920190614a94565b5060408201516002820180546001600160a01b0319166001600160a01b039092169190911790556060820151600382015560808201518051613a2c916004840191602090910190614a94565b5060a08201518051613a48916005840191602090910190614b08565b5060c08201518051613a64916006840191602090910190614b08565b5060e08201518051613a80916007840191602090910190614a94565b506101009190910151600890910180546001600160a01b0319166001600160a01b03909216919091179055609780546001019055613ac833613ac38560016155c7565b614372565b60405133907fbcfb4e896ec8bbf5ce196bc2fbb4f0f369684f885e110557c606c3a1754245b490600090a25050505050565b609b6020528160005260406000208181548110613b1657600080fd5b6000918252602090912060029091020180546001820180546001600160a01b039092169450919250612b30906156b2565b6000613b5260975490565b905080821115613b6157600080fd5b33600090815260996020526040812060010180546060929190613b83906156b2565b90501115613c29573360009081526099602052604090206001018054613ba8906156b2565b80601f0160208091040260200160405190810160405280929190818152602001828054613bd4906156b2565b8015613c215780601f10613bf657610100808354040283529160200191613c21565b820191906000526020600020905b815481529060010190602001808311613c0457829003601f168201915b505050505090505b613c316149f7565b6000855111613c3f57600080fd5b613c4885614300565b613c5157600080fd5b83815260208082018681523360408085019190915242606085015260e084018590526000878152609a84529081208054600181810183559183529184902085516009909302019182559151805185949293613cb193908501920190614a94565b5060408201516002820180546001600160a01b0319166001600160a01b039092169190911790556060820151600382015560808201518051613cfd916004840191602090910190614a94565b5060a08201518051613d19916005840191602090910190614b08565b5060c08201518051613d35916006840191602090910190614b08565b5060e08201518051613d51916007840191602090910190614a94565b506101009190910151600890910180546001600160a01b0319166001600160a01b0390921691909117905560405133907f2d81dae6bc20daf5173df535646ef739576a175e374fd090d2fcc8e8a3824d0490600090a25050505050565b60988181548110613dbe57600080fd5b6000918252602090912060099091020180546001820180549193509061293c906156b2565b609c6020528160005260406000208181548110613b1657600080fd5b609a602052816000526040600020818154811061291257600080fd5b3b151590565b600081815260696020526040902080546001600160a01b0319166001600160a01b0384169081179091558190613e56826126f0565b6001600160a01b03167f8c5be1e5ebec7d5bd14f71427d1e84f3dd0314c0f7b2291e5b200ac8c7c3b92560405160405180910390a45050565b6000818152606760205260408120546001600160a01b0316613f085760405162461bcd60e51b815260206004820152602c60248201527f4552433732313a206f70657261746f7220717565727920666f72206e6f6e657860448201526b34b9ba32b73a103a37b5b2b760a11b6064820152608401610afb565b6000613f13836126f0565b9050806001600160a01b0316846001600160a01b03161480613f4e5750836001600160a01b0316613f4384610a86565b6001600160a01b0316145b80613f7e57506001600160a01b038082166000908152606a602090815260408083209388168352929052205460ff165b949350505050565b826001600160a01b0316613f99826126f0565b6001600160a01b0316146140015760405162461bcd60e51b815260206004820152602960248201527f4552433732313a207472616e73666572206f6620746f6b656e2074686174206960448201526839903737ba1037bbb760b91b6064820152608401610afb565b6001600160a01b0382166140635760405162461bcd60e51b8152602060048201526024808201527f4552433732313a207472616e7366657220746f20746865207a65726f206164646044820152637265737360e01b6064820152608401610afb565b61406e600082613e21565b6001600160a01b0383166000908152606860205260408120805460019290614097908490615651565b90915550506001600160a01b03821660009081526068602052604081208054600192906140c59084906155c7565b909155505060008181526067602052604080822080546001600160a01b0319166001600160a01b0386811691821790925591518493918716917fddf252ad1be2c89b69c2b068fc378daa952ba7f163c4a11628f55a4df523b3ef91a4505050565b816001600160a01b0316836001600160a01b031614156141885760405162461bcd60e51b815260206004820152601960248201527f4552433732313a20617070726f766520746f2063616c6c6572000000000000006044820152606401610afb565b6001600160a01b038381166000818152606a6020908152604080832094871680845294825291829020805460ff191686151590811790915591519182527f17307eab39ab6107e8899845ad3d59bd9653f200f220920489ca2b5937696c31910160405180910390a3505050565b614200848484613f86565b61420c8484848461438c565b6121bd5760405162461bcd60e51b8152600401610afb906154a3565b606060006142368484614499565b8051909150831461427c5760405162461bcd60e51b815260206004820152601060248201526f2a3bb2b2ba103737ba103337bab7321760811b6044820152606401610afb565b6142d86142888461452d565b82602001516142c66142998761452d565b60208087015160808801516040516142b2949301615138565b604051602081830303815290604052614647565b6040516020016142b29392919061502b565b6040516020016142e891906150f3565b60405160208183030381529060405291505092915050565b60006001815b835181101561436a57600084828151811061433157634e487b7160e01b600052603260045260246000fd5b01602001516001600160f81b0319169050600160fd1b811461435757600092505061436a565b5080614362816156ed565b915050614306565b501592915050565b61099e8282604051806020016040528060008152506147bd565b60006001600160a01b0384163b1561448e57604051630a85bd0160e11b81526001600160a01b0385169063150b7a02906143d0903390899088908890600401615352565b602060405180830381600087803b1580156143ea57600080fd5b505af192505050801561441a575060408051601f3d908101601f1916820190925261441791810190614da9565b60015b614474573d808015614448576040519150601f19603f3d011682016040523d82523d6000602084013e61444d565b606091505b50805161446c5760405162461bcd60e51b8152600401610afb906154a3565b805181602001fd5b6001600160e01b031916630a85bd0160e11b149050613f7e565b506001949350505050565b6144a16149f7565b6144a96149f7565b60005b845181101561452557838582815181106144d657634e487b7160e01b600052603260045260246000fd5b60200260200101516000015114156145135784818151811061450857634e487b7160e01b600052603260045260246000fd5b602002602001015191505b8061451d816156ed565b9150506144ac565b509392505050565b6060816145515750506040805180820190915260018152600360fc1b602082015290565b8160005b811561457b5780614565816156ed565b91506145749050600a836155df565b9150614555565b60008167ffffffffffffffff8111156145a457634e487b7160e01b600052604160045260246000fd5b6040519080825280601f01601f1916602001820160405280156145ce576020820181803683370190505b5090505b8415613f7e576145e3600183615651565b91506145f0600a86615708565b6145fb9060306155c7565b60f81b81838151811061461e57634e487b7160e01b600052603260045260246000fd5b60200101906001600160f81b031916908160001a905350614640600a866155df565b94506145d2565b606081516000141561466757505060408051602081019091526000815290565b6000604051806060016040528060408152602001615775604091399050600060038451600261469691906155c7565b6146a091906155df565b6146ab9060046155f3565b905060006146ba8260206155c7565b67ffffffffffffffff8111156146e057634e487b7160e01b600052604160045260246000fd5b6040519080825280601f01601f19166020018201604052801561470a576020820181803683370190505b509050818152600183018586518101602084015b818310156147785760039283018051603f601282901c811687015160f890811b8552600c83901c8216880151811b6001860152600683901c8216880151811b60028601529116860151901b9382019390935260040161471e565b60038951066001811461479257600281146147a3576147af565b613d3d60f01b6001198301526147af565b603d60f81b6000198301525b509398975050505050505050565b6147c783836147f0565b6147d4600084848461438c565b610c315760405162461bcd60e51b8152600401610afb906154a3565b6001600160a01b0382166148465760405162461bcd60e51b815260206004820181905260248201527f4552433732313a206d696e7420746f20746865207a65726f20616464726573736044820152606401610afb565b6000818152606760205260409020546001600160a01b0316156148ab5760405162461bcd60e51b815260206004820152601c60248201527f4552433732313a20746f6b656e20616c7265616479206d696e746564000000006044820152606401610afb565b6001600160a01b03821660009081526068602052604081208054600192906148d49084906155c7565b909155505060008181526067602052604080822080546001600160a01b0319166001600160a01b03861690811790915590518392907fddf252ad1be2c89b69c2b068fc378daa952ba7f163c4a11628f55a4df523b3ef908290a45050565b82805461493e906156b2565b90600052602060002090601f01602090048101928261496057600085556149ad565b82601f1061497157805485556149ad565b828001600101855582156149ad57600052602060002091601f016020900482015b828111156149ad578254825591600101919060010190614992565b506149b9929150614b5d565b5090565b5080546149c9906156b2565b6000825580601f106149d9575050565b601f0160209004906000526020600020908101906128a49190614b5d565b604051806101200160405280600081526020016060815260200160006001600160a01b03168152602001600081526020016060815260200160608152602001606081526020016060815260200160006001600160a01b031681525090565b8280548282559060005260206000209081019282156149ad576000526020600020918201828111156149ad578254825591600101919060010190614992565b828054614aa0906156b2565b90600052602060002090601f016020900481019282614ac257600085556149ad565b82601f10614adb57805160ff19168380011785556149ad565b828001600101855582156149ad579182015b828111156149ad578251825591602001919060010190614aed565b8280548282559060005260206000209081019282156149ad579160200282015b828111156149ad57825182546001600160a01b0319166001600160a01b03909116178255602090920191600190910190614b28565b5b808211156149b95760008155600101614b5e565b600067ffffffffffffffff80841115614b8d57614b8d615748565b604051601f8501601f19908116603f01168101908282118183101715614bb557614bb5615748565b81604052809350858152868686011115614bce57600080fd5b858560208301376000602087830101525050509392505050565b80356001600160a01b0381168114614bff57600080fd5b919050565b600082601f830112614c14578081fd5b614c2383833560208501614b72565b9392505050565b600060208284031215614c3b578081fd5b614c2382614be8565b60008060408385031215614c56578081fd5b614c5f83614be8565b9150614c6d60208401614be8565b90509250929050565b600080600060608486031215614c8a578081fd5b614c9384614be8565b9250614ca160208501614be8565b9150604084013590509250925092565b60008060008060808587031215614cc6578081fd5b614ccf85614be8565b9350614cdd60208601614be8565b925060408501359150606085013567ffffffffffffffff811115614cff578182fd5b8501601f81018713614d0f578182fd5b614d1e87823560208401614b72565b91505092959194509250565b60008060408385031215614d3c578182fd5b614d4583614be8565b915060208301358015158114614d59578182fd5b809150509250929050565b60008060408385031215614d76578182fd5b614d7f83614be8565b946020939093013593505050565b600060208284031215614d9e578081fd5b8135614c238161575e565b600060208284031215614dba578081fd5b8151614c238161575e565b60008060408385031215614dd7578182fd5b50508035926020909101359150565b600060208284031215614df7578081fd5b813567ffffffffffffffff811115614e0d578182fd5b613f7e84828501614c04565b60008060408385031215614e2b578182fd5b823567ffffffffffffffff80821115614e42578384fd5b614e4e86838701614c04565b93506020850135915080821115614e63578283fd5b50614e7085828601614c04565b9150509250929050565b60008060408385031215614e8c578182fd5b823567ffffffffffffffff811115614ea2578283fd5b614eae85828601614c04565b95602094909401359450505050565b600060208284031215614ece578081fd5b5035919050565b6000815180845260208085019450808401835b83811015614f0d5781516001600160a01b031687529582019590820190600101614ee8565b509495945050505050565b60008151808452614f30816020860160208601615668565b601f01601f19169290920160200192915050565b60008151614f56818560208601615668565b9290920192915050565b6000610120825184526020830151816020860152614f8082860182614f18565b9150506040830151614f9d60408601826001600160a01b03169052565b506060830151606085015260808301518482036080860152614fbf8282614f18565b91505060a083015184820360a0860152614fd98282614ed5565b91505060c083015184820360c0860152614ff38282614ed5565b91505060e083015184820360e086015261500d8282614f18565b91505061010080840151611601828701826001600160a01b03169052565b6f7b226e616d65223a225477656574202360801b81528351600090615057816010850160208901615668565b71111610113232b9b1b934b83a34b7b7111d1160711b6010918401918201528451615089816022840160208901615668565b7f222c2022696d616765223a2022646174613a696d6167652f7376672b786d6c3b602292909101918201526618985cd94d8d0b60ca1b604282015283516150d7816049840160208801615668565b61227d60f01b60499290910191820152604b0195945050505050565b7f646174613a6170706c69636174696f6e2f6a736f6e3b6261736536342c00000081526000825161512b81601d850160208701615668565b91909101601d0192915050565b7f3c73766720786d6c6e733d22687474703a2f2f7777772e77332e6f72672f323081527f30302f73766722207072657365727665417370656374526174696f3d22784d6960208201527f6e594d696e206d656574222076696577426f783d22302030203335302033353060408201527f223e3c726563742077696474683d223130302522206865696768743d2231303060608201527f25222066696c6c3d2223616162386332223e3c2f726563743e3c73776974636860808201527f3e3c666f726569676e4f626a65637420783d22302220793d223022207769647460a08201527f683d223130302522206865696768743d2231303025223e3c7020786d6c6e733d60c08201527f22687474703a2f2f7777772e77332e6f72672f313939392f7868746d6c22206660e08201527f6f6e742d73697a653d223132707822207374796c653d22666f6e742d73697a65610100820152731d1898383c1db830b23234b7339d1ab83c1d911f60611b6101208201526554776565742360d01b610134820152600061534961531161530b6152f06152ea6152d961013a88018b614f44565b641e3139179f60d91b815260050190565b88614f44565b6e1e3139179f1e34b6b39039b9319e9160891b8152600f0190565b85614f44565b7f222f3e3c2f703e3c2f666f726569676e4f626a6563743e3c2f7377697463683e8152651e17b9bb339f60d11b602082015260260190565b95945050505050565b6001600160a01b038581168252841660208201526040810183905260806060820181905260009061538590830184614f18565b9695505050505050565b6001600160a01b0383168152604060208201819052600090613f7e90830184614f18565b6000602080830181845280855180835260408601915060408160051b8701019250838701855b8281101561540757603f198886030184526153f5858351614f60565b945092850192908501906001016153d9565b5092979650505050505050565b60006020808301818452808551808352604092508286019150828160051b870101848801865b8381101561548257888303603f19018552815180516001600160a01b0316845287015187840187905261546f87850182614f18565b958801959350509086019060010161543a565b509098975050505050505050565b602081526000614c236020830184614f18565b60208082526032908201527f4552433732313a207472616e7366657220746f206e6f6e20455243373231526560408201527131b2b4bb32b91034b6b83632b6b2b73a32b960711b606082015260800190565b60208082526031908201527f4552433732313a207472616e736665722063616c6c6572206973206e6f74206f6040820152701ddb995c881b9bdc88185c1c1c9bdd9959607a1b606082015260800190565b602081526000614c236020830184614f60565b87815260e06020820152600061557260e0830189614f18565b6001600160a01b03888116604085015260608401889052838203608085015261559b8288614f18565b915083820360a08501526155af8287614f18565b925080851660c0850152505098975050505050505050565b600082198211156155da576155da61571c565b500190565b6000826155ee576155ee615732565b500490565b600081600019048311821515161561560d5761560d61571c565b500290565b60008083128015600160ff1b8501841216156156305761563061571c565b6001600160ff1b038401831381161561564b5761564b61571c565b50500390565b6000828210156156635761566361571c565b500390565b60005b8381101561568357818101518382015260200161566b565b838111156121bd5750506000910152565b6000600160ff1b8214156156aa576156aa61571c565b506000190190565b600181811c908216806156c657607f821691505b602082108114156156e757634e487b7160e01b600052602260045260246000fd5b50919050565b60006000198214156157015761570161571c565b5060010190565b60008261571757615717615732565b500690565b634e487b7160e01b600052601160045260246000fd5b634e487b7160e01b600052601260045260246000fd5b634e487b7160e01b600052604160045260246000fd5b6001600160e01b0319811681146128a457600080fdfe4142434445464748494a4b4c4d4e4f505152535455565758595a6162636465666768696a6b6c6d6e6f707172737475767778797a303132333435363738392b2fa2646970667358221220146f0d5b1af1becd01580b02a8a0f93f55120312379d3eb7bc9dd19adaae75bf64736f6c63430008040033496e697469616c697a61626c653a20636f6e7472616374206973206e6f742069",
  "linkReferences": {},
  "deployedLinkReferences": {}
}